:020000040800F2
:10000000005000209D090008ED090008ED090008D6
:10001000ED090008ED090008ED09000800000000E6
:10002000000000000000000000000000ED090008D2
:10003000ED09000800000000ED090008ED090008C6
:10004000ED090008ED090008ED090008ED090008B8
:10005000ED090008ED090008ED090008ED090008A8
:10006000ED090008ED090008ED090008ED09000898
:10007000ED090008ED090008ED090008ED09000888
:10008000ED090008ED090008ED090008ED09000878
:10009000ED090008ED090008ED090008ED09000868
:1000A000ED090008ED090008ED090008ED09000858
:1000B000ED090008ED090008ED090008ED09000848
:1000C000ED090008ED090008ED090008ED09000838
:1000D000ED090008ED090008ED090008ED09000828
:1000E000ED090008ED09000800000000ED09000816
:1000F000ED090008ED090008ED090008ED09000808
:10010000ED090008ED090008ED090008ED090008F7
:10011000ED090008ED090008ED090008ED090008E7
:10012000ED090008ED090008ED090008ED090008D7
:1001300010B5054C237833B9044B13B10448AFF321
:1001400000800123237010BD780000200000000013
:10015000380A000808B5034B1BB103490348AFF345
:10016000008008BD000000007C000020380A000864
:1001700080B584B000AF78607B681B79FB737B68C7
:100180005B79BB73FB7B0F2B0DD87B681B68BA7B3D
:10019000F97B184600F00BF87B689B791946786864
:1001A00000F04AF800E000BF1037BD4680BD80B4C3
:1001B00083B000AF78600B46FB701346BB70FB78D2
:1001C0000F2B34D8FB78072B15D87B681B68FA787F
:1001D00092000F2101FA02F2D2431A407B681A60A2
:1001E0007B681B68B978FA78920001FA02F21A4328
:1001F0007B681A601CE0FB780F2B19D8FB78083B52
:10020000FB707B685B68FA7892000F2101FA02F2BA
:10021000D2431A407B685A607B685B68B978FA7889
:10022000920001FA02F21A437B685A6000E000BFB4
:100230000C37BD4680BC704780B483B000AF786097
:100240000B46FB707B681B790F2B16D8FB78012BB4
:1002500009D17B681B791A46012303FA02F27B68F5
:100260001B681A610AE07B681B791A46012303FAAE
:1002700002F27B681B685A6100E000BF0C37BD4684
:1002800080BC704780B584B000AF78600023FB73FA
:100290000023BB737B68002B3BD00023FB7315E06E
:1002A000FB7B7A68DB00134401225A71FB7B7A687E
:1002B000DB00134400229A71FB7BDB007A68134455
:1002C0001846FFF755FFFB7B0133FB73FB7B032BCA
:1002D000E6D90023BB7318E0BB7B7A680433DB00EC
:1002E000134408225A71BB7B7A680433DB00134441
:1002F00000229A71BB7B0433DB007A6813441846F2
:10030000FFF736FFBB7B0133BB73BB7B032BE3D90A
:1003100000E000BF1037BD4680BD80B586B000AF9D
:1003200078600023FB757B68002B77D07B68082200
:100330005A717B6800229A717B681846FFF718FF94
:100340007B6808225A737B6800229A737B680833A3
:100350001846FFF70DFF0023FB7518E0FB7D7A6858
:100360000233DB00134401225A71FB7D7A680233A9
:10037000DB00134400229A71FB7D0233DB007A68B4
:1003800013441846FFF7F4FEFB7D0133FB75FB7D3C
:10039000032BE3D900233B6102E03B6901333B615E
:1003A0003B6942F6F7229342F7D93821786800F08A
:1003B00039F80023FB6002E0FB680133FB60FB6857
:1003C00040F68B229342F7D93821786800F02AF85A
:1003D0000023BB6002E0BB680133BB60BB68312B0C
:1003E000F9D93821786800F01DF80121786800F00B
:1003F00019F80221786800F015F80621786800F0F5
:1004000011F80C21786800F00DF82821786800F0C8
:1004100009F88021786800F005F800E000BF18377F
:10042000BD4680BD80B582B000AF78600B46FB70E2
:100430007B68002B17D07B6800211846FFF7FCFE75
:10044000FB781B09DBB21946786800F04FF8786832
:1004500000F088F8FB781946786800F047F878686B
:1004600000F080F800E000BF0837BD4680BD80B5D1
:1004700082B000AF78600B46FB707B68002B17D012
:100480007B6801211846FFF7D7FEFB781B09DBB21A
:100490001946786800F02AF8786800F063F8FB786D
:1004A0001946786800F022F8786800F05BF800E000
:1004B00000BF0837BD4680BD80B582B000AF786010
:1004C00039607B68002B0DD007E03B685A1C3A600E
:1004D0001B7819467868FFF7CAFF3B681B78002B2A
:1004E000F3D100E000BF0837BD4680BD80B582B0C3
:1004F00000AF78600B46FB707B6803F11002FB785D
:1005000003F00103DBB219461046FFF795FE7B6846
:1005100003F11802FB785B08DBB203F00103DBB2E6
:1005200019461046FFF788FE7B6803F12002FB782E
:100530009B08DBB203F00103DBB219461046FFF75C
:100540007BFE7B6803F12802FB78DB08DBB203F05B
:100550000103DBB219461046FFF76EFE00BF0837F5
:10056000BD4680BD80B584B000AF78607B6808333D
:1005700001211846FFF760FE0023FB6002E0FB68E4
:100580000133FB60FB68002BF9D07B680833002146
:100590001846FFF751FE00BF1037BD4680BD80B53D
:1005A00082B000AF78607B68002B16D07B681B7828
:1005B000184600F053F87B681B78022B09D17B6842
:1005C0005B78184600F0DEF87B689B78184600F0F0
:1005D00065F9786800F076F900E000BF0837BD469D
:1005E00080BD000080B483B000AF03460A46FB71B3
:1005F0001346BB71FB79022B1CD0022B25DC002B90
:1006000002D0012B0BD020E0134B5B69BA7901219A
:1006100001FA02F21146104A0B43536116E00E4BE9
:10062000DB69BA79012101FA02F211460A4A0B4349
:10063000D3610BE0084B9B69BA79012101FA02F200
:100640001146054A0B43936100E000BF00BF0C3721
:10065000BD4680BC704700BF0010024080B483B02C
:1006600000AF0346FB71464B5B68454A23F001032C
:100670005360434B5B68424A23F002035360FB79AB
:10068000022B42D0022B5BDC002B02D0012B1BD0B3
:1006900056E03B4B1B683A4A43F00103136000BF2E
:1006A000374B1B685B0803F00103002BF8D0344B79
:1006B0005B68334A23F001035360314B5B68304A77
:1006C00023F00203536056E02D4B1B682C4A43F481
:1006D000803313602A4B1B68294A23F4802313605C
:1006E00000BF274B1B685B0C03F00103002BF8D005
:1006F000234B5B68224A43F001035360204B5B6845
:100700001F4A23F00203536035E01D4B1B681C4A4F
:1007100043F08073136000BF194B1B685B0E03F03E
:100720000103002BF8D0164B5B68154A23F0010338
:100730005360134B5B68124A43F0020353601AE0A4
:100740000F4B1B680E4A43F00103136000BF0C4BB4
:100750001B685B0803F00103002BF8D0084B5B68B3
:10076000074A23F001035360054B5B68044A23F0FA
:100770000203536000BF00BF0C37BD4680BC70470A
:100780000010024080B483B000AF0346FB71424BBF
:100790005B68414A23F4003353603F4B5B683E4A39
:1007A00023F480335360FB79022B4CD0022B5FDCA7
:1007B000002B02D0012B23D05AE0374B1B68364A5E
:1007C00043F48033136000BF334B1B685B0C03F0B2
:1007D0000103002BF8D0304B5B682F4A23F4003321
:1007E00053602D4B5B682C4A43F48033536000BF49
:1007F000294B1B685B0C03F00103002BF8D046E08B
:10080000254B1B68244A43F48033136000BF224BFE
:100810001B685B0C03F00103002BF8D01E4B5B68D8
:100820001D4A43F4003353601B4B5B681A4A43F480
:100830008033536000BF184B1B685B0C03F001034F
:10084000002BF8D023E0144B1B68134A43F001033C
:10085000136000BF104B1B685B0803F00103002B03
:10086000F8D00D4B5B680C4A23F4803353600EE0E4
:10087000094B1B68084A43F00103136000BF064B95
:100880001B685B0803F00103002BF8D000BF00BF1A
:100890000C37BD4680BC70470010024080B483B066
:1008A00000AF0346FB71064B5B68FA799204114670
:1008B000034A0B43536000BF0C37BD4680BC7047F2
:1008C0000010024080B483B000AF78607B68002BDA
:1008D0001BD0104B5B687A68D278120111460D4A22
:1008E0000B4353600B4B5B687A6812791202114616
:1008F000084A0B435360074B5B687A685279D2020F
:100900001146044A0B43536000E000BF0C37BD465C
:1009100080BC70470010024080B586B000AF1A4A14
:100920003B1D07CA83E807001848FFF738FE02217D
:100930000220FFF757FE03210220FFF753FE144861
:10094000FFF7EBFC1348FFF79DFC3B1D19461048D1
:10095000FFF7B2FD00237B6102E07B6901337B611D
:100960007B690D4A9342F8D901210948FFF75AFDE6
:1009700000233B6102E03B6901333B613B69064A6E
:100980009342F8D9E1E700BF500A00087000002048
:1009900040000020000000209F8601000D48854691
:1009A000AFF300800C480D490D4A002302E0D458F3
:1009B000C4500433C4188C42F9D30A4A0A4C0023A9
:1009C00001E013600432A242FBD300F011F8FFF7FC
:1009D000A3FFFEE700500020000000207800002068
:1009E000640A00087800002094000020FEE7000060
:1009F00070B500260C4D0D4C641BA410A64209D105
:100A000000F01AF800260A4D0A4C641BA410A642F6
:100A100005D170BD55F8043B98470136EEE755F80F
:100A2000043B98470136F2E75C0A00085C0A0008BC
:100A30005C0A0008600A0008F8B500BFF8BC08BCF2
:100A40009E467047F8B500BFF8BC08BC9E4670478C
:0C0A500048454C4C4F5F574F524C44003F
:040A5C005501000838
:040A60003101000858
:100A640000080140000000000008014001000000EF
:100A740000080140020000000008014003000000DB
:100A840000080140040000000008014005000000C7
:100A940000080140060000000008014007000000B3
:100AA400000C014004000000000C0140050000009F
:100AB400000C014000000000000C01400100000097
:100AC400000C014002000000000C01400300000083
:080AD400010000000000000019
:040000050800099D49
:00000001FF
