:020000040800F2
:10000000005000203D0B00088D0B00088D0B0008F0
:100010008D0B00088D0B00088D0B00080000000000
:100020000000000000000000000000008D0B000830
:100030008D0B0008000000008D0B00088D0B0008E0
:100040008D0B00088D0B00088D0B00088D0B000830
:100050008D0B00088D0B00088D0B00088D0B000820
:100060008D0B00088D0B00088D0B00088D0B000810
:100070008D0B00088D0B00088D0B00088D0B000800
:100080008D0B00088D0B00088D0B00088D0B0008F0
:100090008D0B00088D0B00088D0B00088D0B0008E0
:1000A0008D0B00088D0B00088D0B00088D0B0008D0
:1000B0008D0B00088D0B00088D0B00088D0B0008C0
:1000C0008D0B00088D0B00088D0B00088D0B0008B0
:1000D0008D0B00088D0B00088D0B00088D0B0008A0
:1000E0008D0B00088D0B0008000000008D0B000830
:1000F0008D0B00088D0B00088D0B00088D0B000880
:100100008D0B00088D0B00088D0B00088D0B00086F
:100110008D0B00088D0B00088D0B00088D0B00085F
:100120008D0B00088D0B00088D0B00088D0B00084F
:1001300010B5054C237833B9044B13B10448AFF321
:1001400000800123237010BD80000020000000000B
:10015000D80B000808B5034B1BB103490348AFF3A4
:10016000008008BD0000000084000020D80B0008BB
:1001700080B584B000AF78607B681B79FB737B68C7
:100180005B79BB73FB7B0F2B0DD87B681B68BA7B3D
:10019000F97B184600F00BF87B689B791946786864
:1001A00000F04AF800E000BF1037BD4680BD80B4C3
:1001B00083B000AF78600B46FB701346BB70FB78D2
:1001C0000F2B34D8FB78072B15D87B681B68FA787F
:1001D00092000F2101FA02F2D2431A407B681A60A2
:1001E0007B681B68B978FA78920001FA02F21A4328
:1001F0007B681A601CE0FB780F2B19D8FB78083B52
:10020000FB707B685B68FA7892000F2101FA02F2BA
:10021000D2431A407B685A607B685B68B978FA7889
:10022000920001FA02F21A437B685A6000E000BFB4
:100230000C37BD4680BC704780B483B000AF786097
:100240000B46FB707B681B790F2B16D8FB78012BB4
:1002500009D17B681B791A46012303FA02F27B68F5
:100260001B681A610AE07B681B791A46012303FAAE
:1002700002F27B681B685A6100E000BF0C37BD4684
:1002800080BC704780B483B000AF78607B681B7916
:100290000F2B01D9002309E07B681B689B687A68F3
:1002A0001279D340DBB203F00103DBB218460C37FE
:1002B000BD4680BC704780B584B000AF7860002335
:1002C000FB730023BB737B68002B34D00023FB73CC
:1002D00015E0FB7B7A68DB00134401225A71FB7B3B
:1002E0007A68DB00134400229A71FB7BDB007A689A
:1002F00013441846FFF73CFFFB7B0133FB73FB7B8A
:10030000032BE6D90023BB7311E0BB7B7A6804336F
:10031000DB00134408225A71BB7B0433DB007A688C
:1003200013441846FFF724FFBB7B0133BB73BB7B31
:10033000032BEAD900E000BF1037BD4680BD0000A6
:1003400080B584B000AF7860FF23FB730023BB73DC
:1003500043E000237B730AE07B7BDB007A68134475
:1003600001211846FFF768FF7B7B01337B737B7BA2
:10037000032BF1D9BB7BDB007A68134400211846BC
:10038000FFF75AFF00233B7321E03B7B0433DB0084
:100390007A6813441846FFF775FF0346002B13D104
:1003A00000BF3B7B0433DB007A6813441846FFF739
:1003B00069FF0346002BF4D0BA7B3B7B0B499200CC
:1003C0000A4413441B78FB733B7B01333B733B7B39
:1003D000032BDAD9BB7B0133BB73BB7B032BB8D9AF
:1003E000FB7B18461037BD4680BD00BFFC0B0008E4
:1003F00080B584B000AF78600023FB737B68002B6E
:1004000067D07B6802225A717B6802225A737B682C
:1004100002225A757B6800229A717B6800229A73C7
:100420007B6800229A757B681846FFF7A1FE7B68FF
:1004300008331846FFF79CFE7B6810331846FFF719
:1004400097FE0023FB7318E0FB7B7A680333DB0025
:10045000134402225A71FB7B7A680333DB00134496
:1004600000229A71FB7B0333DB007A681344184641
:10047000FFF77EFEFB7B0133FB73FB7B032BE3D992
:100480000023BB6003E000BFBB680133BB60BB68F7
:1004900042F6F7229342F6D93321786800F01DF82E
:1004A0003221786800F019F82821786800F015F8F2
:1004B0000C21786800F011F80621786800F00DF83A
:1004C0008021786800F009F80121786800F005F8CB
:1004D00000E000BF1037BD4680BD80B582B000AFE0
:1004E00078600B46FB707B68002B1DD07B68002179
:1004F0001846FFF7A1FE7B68083300211846FFF776
:100500009BFEFB781B09DBB21946786800F0AAF85D
:10051000786800F0E3F8FB781946786800F0A2F8F4
:10052000786800F0DBF800E000BF0837BD4680BD0A
:1005300080B582B000AF78600B46FB707B68002B03
:100540001DD07B6801211846FFF776FE7B680833D3
:1005500000211846FFF770FEFB781B09DBB2194635
:10056000786800F07FF8786800F0B8F8FB781946F2
:10057000786800F077F8786800F0B0F800E000BF25
:100580000837BD4680BD80B582B000AF7860396065
:100590007B68002B0DD007E03B685A1C3A601B7843
:1005A00019467868FFF7C4FF3B681B78002BF3D12E
:1005B00000E000BF0837BD4680BD80B582B000AF07
:1005C000786001217868FFF788FF00BF0837BD46D3
:1005D00080BD000080B586B000AF78600023FB7559
:1005E0007B68002B1FD130211C48FFF7A1FF30E0B2
:1005F00079681B4BA3FB0123DA0813469B001344C5
:100600005B00CA1AD2B2FB7D3032D2B218333B44FF
:1006100003F80C2C7B68124AA2FB0323DB087B60E7
:10062000FB7D0133FB757B68002BE1D1FB7DBB7546
:100630000CE0BB7D013B18333B4413F80C3C1946DE
:100640000648FFF775FFBB7D013BBB75BB7D002BEB
:10065000EFD100BF1837BD4680BD00BF400000206D
:10066000CDCCCCCC80B582B000AF78600B46FB70AF
:100670007B6803F11802FB7803F00103DBB2194633
:100680001046FFF7D9FD7B6803F12002FB785B0879
:10069000DBB203F00103DBB219461046FFF7CCFDD5
:1006A0007B6803F12802FB789B08DBB203F00103AF
:1006B000DBB219461046FFF7BFFD7B6803F130023D
:1006C000FB78DB08DBB203F00103DBB2194610460E
:1006D000FFF7B2FD00BF0837BD4680BD80B584B0CE
:1006E00000AF78607B68103301211846FFF7A4FD46
:1006F0000023FB7302E0FB7B0133FB73FB7B092BC5
:10070000F9D97B68103300211846FFF795FD0023C7
:10071000BB8102E0BB890133BB81BB89B3F5FA6FB2
:10072000F8D300BF00BF1037BD4680BD80B582B092
:1007300000AF78607B68002B16D07B681B7818466A
:1007400000F052F87B681B78022B09D17B685B783C
:10075000184600F0D9F87B689B78184600F05AF9E3
:10076000786800F06BF900E000BF0837BD4680BD37
:1007700080B483B000AF03460A46FB711346BB71D9
:10078000FB79022B1CD0022B25DC002B02D0012B85
:100790000BD020E0134B5B69BA79012101FA02F218
:1007A0001146104A0B43536116E00E4BDB69BA79D0
:1007B000012101FA02F211460A4A0B43D3610BE010
:1007C000084B9B69BA79012101FA02F21146054AE8
:1007D0000B43936100E000BF00BF0C37BD4680BCF7
:1007E000704700BF0010024080B483B000AF0346E2
:1007F000FB71444B5B68434A23F001035360414B58
:100800005B68404A23F002035360FB79022B40D01F
:10081000022B58DC002B02D0012B1AD053E0394BAD
:100820001B68384A43F00103136000BF354B1B6857
:1008300003F00203002BF9D0324B5B68314A23F0FE
:10084000010353602F4B5B682E4A23F00203536071
:1008500053E02C4B1B682B4A43F480331360294B25
:100860001B68284A23F48023136000BF254B1B68B4
:1008700003F40033002BF9D0224B5B68214A43F08C
:10088000010353601F4B5B681E4A23F00203536051
:1008900033E01C4B1B681B4A43F08073136000BF9E
:1008A000184B1B6803F00073002BF9D0154B5B68E5
:1008B000144A23F001035360124B5B68114A43F062
:1008C0000203536019E00F4B1B680E4A43F001030B
:1008D000136000BF0B4B1B6803F00203002BF9D021
:1008E000084B5B68074A23F001035360054B5B68C4
:1008F000044A23F00203536000BF00BF0C37BD461B
:1009000080BC70470010024080B483B000AF034643
:10091000FB713F4B5B683E4A23F4003353603C4B12
:100920005B683B4A23F480335360FB79022B48D049
:10093000022B5ADC002B02D0012B21D055E0344B86
:100940001B68334A43F48033136000BF304B1B688D
:1009500003F40033002BF9D02D4B5B682C4A23F4B1
:10096000003353602A4B5B68294A43F48033536059
:1009700000BF274B1B6803F40033002BF9D042E083
:10098000234B1B68224A43F48033136000BF204B83
:100990001B6803F40033002BF9D01D4B5B681C4A25
:1009A00043F4003353601A4B5B68194A43F48033B5
:1009B000536000BF164B1B6803F40033002BF9D0C3
:1009C00021E0134B1B68124A43F00103136000BF80
:1009D0000F4B1B6803F00203002BF9D00C4B5B6834
:1009E0000B4A23F4803353600DE0094B1B68084A1F
:1009F00043F00103136000BF054B1B6803F00203C3
:100A0000002BF9D000BF00BF0C37BD4680BC70473B
:100A10000010024080B483B000AF0346FB71064B68
:100A20005B68FA7992041146034A0B43536000BF96
:100A30000C37BD4680BC70470010024080B483B0C4
:100A400000AF78607B68002B1BD0104B5B687A6826
:100A5000D278120111460D4A0B4353600B4B5B6871
:100A60007A68127912021146084A0B435360074B09
:100A70005B687A685279D2021146044A0B4353608C
:100A800000E000BF0C37BD4680BC7047001002403C
:100A900080B584B000AF2448FFF748FE0221022051
:100AA000FFF766FE03210220FFF762FE1F48FFF7F3
:100AB00002FC1F48FFF79CFCFF23FB701D491C48EC
:100AC000FFF761FD0023FB6002E0FB680133FB6080
:100AD000FB68194A9342F8D91548FFF76EFD0023C9
:100AE000BB6002E0BB680133BB60BB68124A934243
:100AF000F8D9FF23FB700D48FFF722FC0346FB707B
:100B0000FB78FF2BF5D0FB78303B1846FFF762FDF2
:100B100000237B6002E07B6801337B607B68B3F578
:100B20007A7FF8D3E5E700BF7800002000000020BE
:100B300040000020F00B00089F8601000D4885460C
:100B4000AFF300800C480D490D4A002302E0D45851
:100B5000C4500433C4188C42F9D30A4A0A4C002307
:100B600001E013600432A242FBD300F011F8FFF75A
:100B70008FFFFEE7005000200000002080000020D2
:100B8000140C0008800000209C000020FEE70000FC
:100B900070B500260C4D0D4C641BA410A64209D163
:100BA00000F01AF800260A4D0A4C641BA410A64255
:100BB00005D170BD55F8043B98470136EEE755F86E
:100BC000043B98470136F2E70C0C00080C0C0008B7
:100BD0000C0C0008100C0008F8B500BFF8BC08BCED
:100BE0009E467047F8B500BFF8BC08BC9E467047EB
:100BF00073797374656D20696E69740031323341A5
:0C0C000034353642373839432A3023445B
:040C0C005501000886
:040C100031010008A6
:100C1400000801400A000000000801400B00000029
:100C2400000801400C000000000801400F00000013
:100C3400000C014003000000000C0140040000000F
:100C4400000C014005000000000C014006000000FB
:100C540000080140040000000008014005000000F5
:100C640000080140060000000008014000000000E8
:100C740000080140010000000008014002000000DB
:100C84000008014003000000010000000000000013
:0400000508000B3DA7
:00000001FF
