:020000040800F2
:1000000000500020C1090008110A0008110A000868
:10001000110A0008110A0008110A00080000000077
:10002000000000000000000000000000110A0008AD
:10003000110A000800000000110A0008110A000857
:10004000110A0008110A0008110A0008110A000824
:10005000110A0008110A0008110A0008110A000814
:10006000110A0008110A0008110A0008110A000804
:10007000110A0008110A0008110A0008110A0008F4
:10008000110A0008110A0008110A0008110A0008E4
:10009000110A0008110A0008110A0008110A0008D4
:1000A000110A0008110A0008110A0008110A0008C4
:1000B000110A0008110A0008110A0008110A0008B4
:1000C000110A0008110A0008110A0008110A0008A4
:1000D000110A0008110A0008110A0008110A000894
:1000E000110A0008110A000800000000110A0008A7
:1000F000110A0008110A0008110A0008110A000874
:10010000110A0008110A0008110A0008110A000863
:10011000110A0008110A0008110A0008110A000853
:10012000110A0008110A0008110A0008110A000843
:1001300010B5054C237833B9044B13B10448AFF321
:1001400000800123237010BD380000200000000053
:100150005C0A000808B5034B1BB103490348AFF321
:10016000008008BD000000003C0000205C0A000880
:1001700080B584B000AF78607B681B79FB737B68C7
:100180005B79BB73FB7B0F2B0DD87B681B68BA7B3D
:10019000F97B184600F00BF87B689B791946786864
:1001A00000F04AF800E000BF1037BD4680BD80B4C3
:1001B00083B000AF78600B46FB701346BB70FB78D2
:1001C0000F2B34D8FB78072B15D87B681B68FA787F
:1001D00092000F2101FA02F2D2431A407B681A60A2
:1001E0007B681B68B978FA78920001FA02F21A4328
:1001F0007B681A601CE0FB780F2B19D8FB78083B52
:10020000FB707B685B68FA7892000F2101FA02F2BA
:10021000D2431A407B685A607B685B68B978FA7889
:10022000920001FA02F21A437B685A6000E000BFB4
:100230000C37BD4680BC704780B483B000AF786097
:100240000B46FB707B681B790F2B16D8FB78012BB4
:1002500009D17B681B791A46012303FA02F27B68F5
:100260001B681A610AE07B681B791A46012303FAAE
:1002700002F27B681B685A6100E000BF0C37BD4684
:1002800080BC704780B586B000AF78600023FB75F6
:100290007B68002B77D07B6808225A717B6800222C
:1002A0009A717B681846FFF763FF7B6808225A73D0
:1002B0007B6800229A737B6808331846FFF758FF63
:1002C0000023FB7518E0FB7D7A680233DB001344E2
:1002D00001225A71FB7D7A680233DB00134400224D
:1002E0009A71FB7D0233DB007A6813441846FFF7EE
:1002F0003FFFFB7D0133FB75FB7D032BE3D900231F
:100300003B6102E03B6901333B613B6942F6F72206
:100310009342F7D93821786800F039F80023FB6060
:1003200002E0FB680133FB60FB6840F68B229342DE
:10033000F7D93821786800F02AF80023BB6002E082
:10034000BB680133BB60BB68312BF9D938217868B1
:1003500000F01DF80121786800F019F80221786892
:1003600000F015F80621786800F011F80C21786883
:1003700000F00DF82821786800F009F880217868ED
:1003800000F005F800E000BF1837BD4680BD80B51D
:1003900082B000AF78600B46FB707B68002B17D0F3
:1003A0007B6800211846FFF747FFFB781B09DBB28B
:1003B0001946786800F065F8786800F09EF8FB78D8
:1003C0001946786800F05DF8786800F096F800E06B
:1003D00000BF0837BD4680BD80B582B000AF7860F1
:1003E0000B46FB707B68002B17D07B6801211846F9
:1003F000FFF722FFFB781B09DBB21946786800F093
:1004000040F8786800F079F8FB781946786800F0D1
:1004100038F8786800F071F800E000BF0837BD4692
:1004200080BD80B584B000AFF8607B600B46FB7286
:100430001346BB72FB68002B13D0BA7AFB7A1946BD
:10044000F86800F077F807E07B685A1C7A601B7840
:100450001946F868FFF7C0FF7B681B78002BF3D1C3
:1004600000E000BF1037BD4680BD80B582B000AF50
:10047000786001217868FFF78AFF00BF0837BD4622
:1004800080BD80B582B000AF78600B46FB707B68A2
:1004900003F11002FB7803F00103DBB219461046AA
:1004A000FFF7CAFE7B6803F11802FB785B08DBB23A
:1004B00003F00103DBB219461046FFF7BDFE7B686F
:1004C00003F12002FB789B08DBB203F00103DBB2EF
:1004D00019461046FFF7B0FE7B6803F12802FB784F
:1004E000DB08DBB203F00103DBB219461046FFF76D
:1004F000A3FE00BF0837BD4680BD80B584B000AF05
:1005000078607B68083301211846FFF795FE0023C9
:10051000FB6002E0FB680133FB60FB68002BF9D055
:100520007B68083300211846FFF786FE00BF1037AE
:10053000BD4680BD80B582B000AF78600B46FB70D1
:100540001346BB70BB78013BBB70FB78013B032BB0
:100550002AD801A252F823F069050008790500089D
:100560008905000899050008BB78803BDBB2194675
:100570007868FFF70CFF17E0BB78403BDBB2194609
:100580007868FFF704FF0FE0BB786C3BDBB21946DD
:100590007868FFF7FCFE07E0BB782C3BDBB219461E
:1005A0007868FFF7F4FE00BF00BF0837BD4680BD86
:1005B00080B582B000AF78607B68002B16D07B6876
:1005C0001B78184600F052F87B681B78022B09D183
:1005D0007B685B78184600F0D9F87B689B781846F2
:1005E00000F05AF9786800F06BF900E000BF0837B6
:1005F000BD4680BD80B483B000AF03460A46FB71A0
:100600001346BB71FB79022B1CD0022B25DC002B7F
:1006100002D0012B0BD020E0134B5B69BA7901218A
:1006200001FA02F21146104A0B43536116E00E4BD9
:10063000DB69BA79012101FA02F211460A4A0B4339
:10064000D3610BE0084B9B69BA79012101FA02F2F0
:100650001146054A0B43936100E000BF00BF0C3711
:10066000BD4680BC704700BF0010024080B483B01C
:1006700000AF0346FB71444B5B68434A23F0010320
:100680005360414B5B68404A23F002035360FB799F
:10069000022B40D0022B58DC002B02D0012B1AD0A9
:1006A00053E0394B1B68384A43F00103136000BF25
:1006B000354B1B6803F00203002BF9D0324B5B680B
:1006C000314A23F0010353602F4B5B682E4A23F01D
:1006D0000203536053E02C4B1B682B4A43F48033D6
:1006E0001360294B1B68284A23F48023136000BF42
:1006F000254B1B6803F40033002BF9D0224B5B68B9
:10070000214A43F0010353601F4B5B681E4A23F0EC
:100710000203536033E01C4B1B681B4A43F0807399
:10072000136000BF184B1B6803F00073002BF9D057
:10073000154B5B68144A23F001035360124B5B684E
:10074000114A43F00203536019E00F4B1B680E4A35
:1007500043F00103136000BF0B4B1B6803F002035F
:10076000002BF9D0084B5B68074A23F00103536064
:10077000054B5B68044A23F00203536000BF00BFCF
:100780000C37BD4680BC70470010024080B483B077
:1007900000AF0346FB713F4B5B683E4A23F40033D6
:1007A00053603C4B5B683B4A23F480335360FB79D6
:1007B000022B48D0022B5ADC002B02D0012B21D077
:1007C00055E0344B1B68334A43F48033136000BF59
:1007D000304B1B6803F40033002BF9D02D4B5B68C2
:1007E0002C4A23F4003353602A4B5B68294A43F4B4
:1007F0008033536000BF274B1B6803F40033002B8A
:10080000F9D042E0234B1B68224A43F48033136043
:1008100000BF204B1B6803F40033002BF9D01D4BA5
:100820005B681C4A43F4003353601A4B5B68194AF7
:1008300043F48033536000BF164B1B6803F400334E
:10084000002BF9D021E0134B1B68124A43F001033F
:10085000136000BF0F4B1B6803F00203002BF9D09D
:100860000C4B5B680B4A23F4803353600DE0094B5B
:100870001B68084A43F00103136000BF054B1B6867
:1008800003F00203002BF9D000BF00BF0C37BD46B8
:1008900080BC70470010024080B483B000AF0346B4
:1008A000FB71064B5B68FA7992041146034A0B43CD
:1008B000536000BF0C37BD4680BC7047001002403B
:1008C00080B483B000AF78607B68002B1BD0104BE6
:1008D0005B687A68D278120111460D4A0B43536067
:1008E0000B4B5B687A68127912021146084A0B4377
:1008F0005360074B5B687A685279D2021146044A0A
:100900000B43536000E000BF0C37BD4680BC70470E
:100910000010024080B584B000AF2548FFF748FEC4
:1009200002210220FFF766FE03210220FFF762FE8C
:100930002048FFF7A7FC204B062201211D48FFF7A6
:1009400070FD0023FB6002E0FB680133FB60FB6885
:100950001A4A9342F8D91748FFF787FD0023BB6076
:1009600002E0BB680133BB60BB6842F20F72934286
:10097000F7D9114B062202210E48FFF752FD002342
:100980007B6002E07B6801337B607B680B4A9342AB
:10099000F8D90848FFF769FD00233B6002E03B6897
:1009A00001333B603B6842F20F729342F7D9C2E7D2
:1009B0003000002000000020740A00089F8601001B
:1009C0000D488546AFF300800C480D490D4A0023C1
:1009D00002E0D458C4500433C4188C42F9D30A4AF4
:1009E0000A4C002301E013600432A242FBD300F062
:1009F00011F8FFF78FFFFEE70050002000000020F5
:100A000038000020840A000838000020540000202C
:100A1000FEE7000070B500260C4D0D4C641BA410C1
:100A2000A64209D100F01AF800260A4D0A4C641BB0
:100A3000A410A64205D170BD55F8043B9847013675
:100A4000EEE755F8043B98470136F2E77C0A0008C8
:100A50007C0A00087C0A0008800A0008F8B500BF7C
:100A6000F8BC08BC9E467047F8B500BFF8BC08BC8F
:040A70009E467047E7
:080A7400476564306F6F00005C
:040A7C005501000818
:040A80003101000838
:100A840000080140040000000008014006000000C6
:100A940000080140000000000008014001000000BF
:100AA40000080140020000000008014003000000AB
:080AB400010000000000000039
:04000005080009C125
:00000001FF
