:020000040800F2
:1000000000500020190C0008690C0008690C000859
:10001000690C0008690C0008690C00080000000069
:10002000000000000000000000000000690C000853
:10003000690C000800000000690C0008690C000849
:10004000690C0008690C0008690C0008690C0008BC
:10005000690C0008690C0008690C0008690C0008AC
:10006000690C0008690C0008690C0008690C00089C
:10007000690C0008690C0008690C0008690C00088C
:10008000690C0008690C0008690C0008690C00087C
:10009000690C0008690C0008690C0008690C00086C
:1000A000690C0008690C0008690C0008690C00085C
:1000B000690C0008690C0008690C0008690C00084C
:1000C000690C0008690C0008690C0008690C00083C
:1000D000690C0008690C0008690C0008690C00082C
:1000E000690C0008690C000800000000690C000899
:1000F000690C0008690C0008690C0008690C00080C
:10010000690C0008690C0008690C0008690C0008FB
:10011000690C0008690C0008690C0008690C0008EB
:10012000690C0008690C0008690C0008690C0008DB
:1001300010B5054C237833B9044B13B10448AFF321
:1001400000800123237010BD480000200000000043
:10015000B40C000808B5034B1BB103490348AFF3C7
:10016000008008BD000000004C000020B40C000816
:1001700080B584B000AF78607B681B79FB737B68C7
:100180005B79BB73FB7B0F2B0DD87B681B68BA7B3D
:10019000F97B184600F00BF87B689B791946786864
:1001A00000F04AF800E000BF1037BD4680BD80B4C3
:1001B00083B000AF78600B46FB701346BB70FB78D2
:1001C0000F2B34D8FB78072B15D87B681B68FA787F
:1001D00092000F2101FA02F2D2431A407B681A60A2
:1001E0007B681B68B978FA78920001FA02F21A4328
:1001F0007B681A601CE0FB780F2B19D8FB78083B52
:10020000FB707B685B68FA7892000F2101FA02F2BA
:10021000D2431A407B685A607B685B68B978FA7889
:10022000920001FA02F21A437B685A6000E000BFB4
:100230000C37BD4680BC704780B483B000AF786097
:100240000B46FB707B681B790F2B16D8FB78012BB4
:1002500009D17B681B791A46012303FA02F27B68F5
:100260001B681A610AE07B681B791A46012303FAAE
:1002700002F27B681B685A6100E000BF0C37BD4684
:1002800080BC704780B584B000AF78600023FB73FA
:100290007B68002B67D07B6802225A717B68022240
:1002A0005A737B6802225A757B6800229A717B68B8
:1002B00000229A737B6800229A757B681846FFF7C4
:1002C00057FF7B6808331846FFF752FF7B681033EF
:1002D0001846FFF74DFF0023FB7318E0FB7B7A689D
:1002E0000333DB00134402225A71FB7B7A68033329
:1002F000DB00134400229A71FB7B0333DB007A6836
:1003000013441846FFF734FFFB7B0133FB73FB7B81
:10031000032BE3D90023BB6003E000BFBB680133BC
:10032000BB60BB6842F6F7229342F6D93321786866
:1003300000F01DF83221786800F019F8282178685B
:1003400000F015F80C21786800F011F806217868A3
:1003500000F00DF88021786800F009F80121786834
:1003600000F005F800E000BF1037BD4680BD80B545
:1003700082B000AF78600B46FB707B68002B1DD00D
:100380007B6800211846FFF757FF7B680833002180
:100390001846FFF751FFFB781B09DBB21946786856
:1003A00000F0B6F8786800F0EFF8FB781946786846
:1003B00000F0AEF8786800F0E7F800E000BF08371A
:1003C000BD4680BD80B586B000AFF860B96011460B
:1003D0001A460B46FB711346BB710023FB75FB6885
:1003E000002B22D097F820300833DBB2DB00DBB2E1
:1003F0001946F868FFF7BBFF0023FB750AE0FB7D99
:10040000BA6813441B781946F86800F012F8FB7DAF
:100410000133FB75FB7D072BF1D997F82030BA79B2
:10042000F979F86800F030F800E000BF1837BD46F1
:1004300080BD80B582B000AF78600B46FB707B68F2
:10044000002B1DD07B6801211846FFF7F5FE7B6865
:10045000083300211846FFF7EFFEFB781B09DBB2DB
:100460001946786800F054F8786800F08DF8FB7849
:100470001946786800F04CF8786800F085F800E0DC
:1004800000BF0837BD4680BD80B582B000AF786040
:10049000084611461A460346FB700B46BB701346CE
:1004A0007B707B68002B0BD0BA78FB781946786894
:1004B00000F092F87B7819467868FFF7BAFF00E001
:1004C00000BF0837BD4680BD80B584B000AFF8607E
:1004D0007B600B46FB721346BB72FB68002B13D08C
:1004E000BA7AFB7A1946F86800F076F807E07B687C
:1004F0005A1C7A601B781946F868FFF79AFF7B68E8
:100500001B78002BF3D100E000BF1037BD4680BD43
:1005100080B582B000AF78600B46FB707B6803F15A
:100520001802FB7803F00103DBB219461046FFF70F
:1005300083FE7B6803F12002FB785B08DBB203F0EB
:100540000103DBB219461046FFF776FE7B6803F124
:100550002802FB789B08DBB203F00103DBB21946EB
:100560001046FFF769FE7B6803F13002FB78DB0879
:10057000DBB203F00103DBB219461046FFF75CFE65
:1005800000BF0837BD4680BD80B584B000AF78603D
:100590007B68103301211846FFF74EFE0023FB73E2
:1005A00002E0FB7B0133FB73FB7B092BF9D97B68F2
:1005B000103300211846FFF73FFE0023BB8102E005
:1005C000BB890133BB81BB89B3F5FA6FF8D300BF98
:1005D00000BF1037BD4680BD80B582B000AF7860E7
:1005E0000B46FB701346BB70BB78013BBB70FB78BE
:1005F000013B032B2AD801A252F823F00D06000874
:100600001D0600082D0600083D060008BB78803B4B
:10061000DBB219467868FFF7AAFE17E0BB78403BCB
:10062000DBB219467868FFF7A2FE0FE0BB786C3B9F
:10063000DBB219467868FFF79AFE07E0BB782C3BDF
:10064000DBB219467868FFF792FE00BF00BF08379B
:10065000BD4680BD80B584B000AF78607B68002B5C
:1006600010D07B681B68BB607B681B793B730123E0
:100670007B737B685B79BB7307F108031846FFF750
:1006800077FD00E000BF1037BD4680BD80B582B069
:1006900000AF78607B68002B0AD07868FFF7DAFF3C
:1006A0007B685B7983F00103DAB27B685A7100E002
:1006B00000BF0837BD4680BD80B582B000AF78600E
:1006C0007B68002B16D07B681B78184600F052F828
:1006D0007B681B78022B09D17B685B78184600F099
:1006E000D9F87B689B78184600F05AF9786800F0D2
:1006F0006BF900E000BF0837BD4680BD80B483B011
:1007000000AF03460A46FB711346BB71FB79022B0F
:100710001CD0022B25DC002B02D0012B0BD020E0BB
:10072000134B5B69BA79012101FA02F21146104AB2
:100730000B43536116E00E4BDB69BA79012101FAD4
:1007400002F211460A4A0B43D3610BE0084B9B6946
:10075000BA79012101FA02F21146054A0B4393616D
:1007600000E000BF00BF0C37BD4680BC704700BF33
:100770000010024080B483B000AF0346FB71444BCD
:100780005B68434A23F001035360414B5B68404A76
:1007900023F002035360FB79022B40D0022B58DC7C
:1007A000002B02D0012B1AD053E0394B1B68384A7A
:1007B00043F00103136000BF354B1B6803F00203D5
:1007C000002BF9D0324B5B68314A23F001035360B0
:1007D0002F4B5B682E4A23F00203536053E02C4BEF
:1007E0001B682B4A43F480331360294B1B68284A4B
:1007F00023F48023136000BF254B1B6803F40033F0
:10080000002BF9D0224B5B68214A43F0010353606F
:100810001F4B5B681E4A23F00203536033E01C4BFE
:100820001B681B4A43F08073136000BF184B1B68A2
:1008300003F00073002BF9D0154B5B68144A23F0CA
:1008400001035360124B5B68114A43F0020353608B
:1008500019E00F4B1B680E4A43F00103136000BF01
:100860000B4B1B6803F00203002BF9D0084B5B68AD
:10087000074A23F001035360054B5B68044A23F0E9
:100880000203536000BF00BF0C37BD4680BC7047F9
:100890000010024080B483B000AF0346FB713F4BB1
:1008A0005B683E4A23F4003353603C4B5B683B4A31
:1008B00023F480335360FB79022B48D0022B5ADC9F
:1008C000002B02D0012B21D055E0344B1B68334A5A
:1008D00043F48033136000BF304B1B6803F40033D4
:1008E000002BF9D02D4B5B682C4A23F40033536066
:1008F0002A4B5B68294A43F48033536000BF274B7F
:100900001B6803F40033002BF9D042E0234B1B6833
:10091000224A43F48033136000BF204B1B6803F46A
:100920000033002BF9D01D4B5B681C4A43F40033A5
:1009300053601A4B5B68194A43F48033536000BF1D
:10094000164B1B6803F40033002BF9D021E0134B46
:100950001B68124A43F00103136000BF0F4B1B6872
:1009600003F00203002BF9D00C4B5B680B4A23F415
:10097000803353600DE0094B1B68084A43F00103C4
:10098000136000BF054B1B6803F00203002BF9D076
:1009900000BF00BF0C37BD4680BC7047001002404E
:1009A00080B483B000AF0346FB71064B5B68FA79F5
:1009B00092041146034A0B43536000BF0C37BD46F7
:1009C00080BC70470010024080B483B000AF7860F4
:1009D0007B68002B1BD0104B5B687A68D2781201C1
:1009E00011460D4A0B4353600B4B5B687A681279D2
:1009F00012021146084A0B435360074B5B687A6842
:100A00005279D2021146044A0B43536000E000BF02
:100A10000C37BD4680BC70470010024080B584B0E2
:100A200002AF7448FFF748FE02210220FFF766FE7E
:100A300003210220FFF762FE6F48FFF70BFE6F48AD
:100A4000FFF720FC6E4B022201216C48FFF73CFDB2
:100A500001230093022302226A496848FFF7B2FC8F
:100A6000012300930323022266496448FFF7AAFC8E
:100A7000012300930423022262496048FFF7A2FC8D
:100A800001230093012302225E495C48FFF79AFC90
:100A900001230093062302225A495848FFF792FC8B
:100AA000012300930723022256495448FFF78AFC8A
:100AB000012300930823022252495048FFF782FC89
:100AC00001230093092302224E494C48FFF77AFC88
:100AD000012300930A2302224A494848FFF772FC87
:100AE000012300930B23022246494448FFF76AFC86
:100AF000012300930C23022242494048FFF762FC85
:100B0000012300930D2302223E493C48FFF75AFC83
:100B1000012300930E2302223A493848FFF752FC82
:100B2000012300930F23022236493448FFF74AFC81
:100B3000022300931023022233493048FFF742FC7E
:100B40000123FB7119E02C48FFF7A0FDFB7904227B
:100B5000009202222D492948FFF734FC0023BB8074
:100B600003E000BFBB880133BB80BB8849F63F422E
:100B70009342F6D9FB790133FB71FB790F2BE2D954
:100B8000052300931023022221491C48FFF71AFC79
:100B900003230093012302221E491848FFF712FC89
:100BA0000223FB7019E01448FFF770FDFB78012267
:100BB0000092022213491148FFF704FC00233B80F6
:100BC00003E000BF3B8801333B803B8849F63F424E
:100BD0009342F6D9FB780133FB70FB780F2BE2D9F7
:100BE000022300931023022207490448FFF7EAFB7F
:100BF000A6E700BF380000204000002000000020D1
:100C0000CC0C0008DC0C0008E40C0008F40C000814
:100C1000FC0C0008EC0C00080D488546AFF3008082
:100C20000C480D490D4A002302E0D458C450043347
:100C3000C4188C42F9D30A4A0A4C002301E013601D
:100C40000432A242FBD300F011F8FFF7E7FEFEE703
:100C50000050002000000020480000200C0D00087B
:100C60004800002064000020FEE7000070B5002668
:100C70000C4D0D4C641BA410A64209D100F01AF8CB
:100C800000260A4D0A4C641BA410A64205D170BD73
:100C900055F8043B98470136EEE755F8043B984772
:100CA0000136F2E7040D0008040D0008040D0008E9
:100CB000080D0008F8B500BFF8BC08BC9E46704798
:0C0CC000F8B500BFF8BC08BC9E467047A9
:100CCC00497427732048617070656E696E67000007
:100CDC001F0000000000001F180701010101071888
:100CEC001F1010101010101F1F1F1F1F1F1F1F1F62
:080CFC00181F1F1F1F1F1F1806
:040D0400550100088D
:040D080031010008AD
:100D0C00000801400400000000080140050000003C
:100D1C00000801400600000000080140000000002F
:100D2C000008014001000000000801400200000022
:100D3C00000801400300000001000000000000005A
:080D4C00000801400A0000004C
:0400000508000C19CA
:00000001FF
