:020000040800F2
:10000000005000205D070008AD070008AD0700089C
:10001000AD070008AD070008AD07000800000000AC
:10002000000000000000000000000000AD07000814
:10003000AD07000800000000AD070008AD0700088C
:10004000AD070008AD070008AD070008AD070008C0
:10005000AD070008AD070008AD070008AD070008B0
:10006000AD070008AD070008AD070008AD070008A0
:10007000AD070008AD070008AD070008AD07000890
:10008000AD070008AD070008AD070008AD07000880
:10009000AD070008AD070008AD070008AD07000870
:1000A000AD070008AD070008AD070008AD07000860
:1000B000AD070008AD070008AD070008AD07000850
:1000C000AD070008AD070008AD070008AD07000840
:1000D000AD070008AD070008AD070008AD07000830
:1000E000AD070008AD07000800000000AD070008DC
:1000F000AD070008AD070008AD070008AD07000810
:10010000AD070008AD070008AD070008AD070008FF
:10011000AD070008AD070008AD070008AD070008EF
:10012000AD070008AD070008AD070008AD070008DF
:1001300010B5054C237833B9044B13B10448AFF321
:1001400000800123237010BD280000200000000063
:10015000F807000808B5034B1BB103490348AFF388
:10016000008008BD000000002C000020F8070008F7
:1001700080B582B000AF78607B68002B15D07B68BB
:1001800001225A717B6801225A737B6800229A719E
:100190007B6800229A737B68184600F04FF87B68F2
:1001A0000833184600F04AF800E000BF0837BD46A3
:1001B00080BD80B582B000AF78607B68002B0BD02B
:1001C0007B680121184600F09DF87B680833002108
:1001D000184600F097F800E000BF0837BD4680BD24
:1001E00080B582B000AF78607B68002B0BD07B6855
:1001F0000021184600F086F87B6808330121184674
:1002000000F080F800E000BF0837BD4680BD80B533
:1002100082B000AF78607B68002B0BD07B68002138
:10022000184600F06FF87B6808330021184600F08C
:1002300069F800E000BF0837BD4680BD80B584B0D6
:1002400000AF78607B681B79FB737B685B79BB735D
:10025000FB7B0F2B0DD87B681B68BA7BF97B18469C
:1002600000F00BF87B689B791946786800F04AF833
:1002700000E000BF1037BD4680BD80B483B000AF42
:1002800078600B46FB701346BB70FB780F2B34D89D
:10029000FB78072B15D87B681B68FA7892000F2132
:1002A00001FA02F2D2431A407B681A607B681B682D
:1002B000B978FA78920001FA02F21A437B681A6060
:1002C0001CE0FB780F2B19D8FB78083BFB707B6890
:1002D0005B68FA7892000F2101FA02F2D2431A40C9
:1002E0007B685A607B685B68B978FA78920001FA9B
:1002F00002F21A437B685A6000E000BF0C37BD462B
:1003000080BC704780B483B000AF78600B46FB7050
:100310007B681B790F2B16D8FB78012B09D17B68E2
:100320001B791A46012303FA02F27B681B681A61E3
:100330000AE07B681B791A46012303FA02F27B6804
:100340001B685A6100E000BF0C37BD4680BC704797
:1003500080B582B000AF78607B68002B16D07B68D8
:100360001B78184600F052F87B681B78022B09D1E5
:100370007B685B78184600F0DDF87B689B78184650
:1003800000F064F9786800F075F900E000BF083704
:10039000BD4680BD80B483B000AF03460A46FB7102
:1003A0001346BB71FB79022B1CD0022B25DC002BE2
:1003B00002D0012B0BD020E0134B5B69BA790121ED
:1003C00001FA02F21146104A0B43536116E00E4B3C
:1003D000DB69BA79012101FA02F211460A4A0B439C
:1003E000D3610BE0084B9B69BA79012101FA02F253
:1003F0001146054A0B43936100E000BF00BF0C3774
:10040000BD4680BC704700BF0010024080B483B07E
:1004100000AF0346FB71464B5B68454A23F001037E
:100420005360434B5B68424A23F002035360FB79FD
:10043000022B42D0022B5BDC002B02D0012B1BD005
:1004400056E03B4B1B683A4A43F00103136000BF80
:10045000374B1B685B0803F00103002BF8D0344BCB
:100460005B68334A23F001035360314B5B68304AC9
:1004700023F00203536056E02D4B1B682C4A43F4D3
:10048000803313602A4B1B68294A23F480231360AE
:1004900000BF274B1B685B0C03F00103002BF8D057
:1004A000234B5B68224A43F001035360204B5B6897
:1004B0001F4A23F00203536035E01D4B1B681C4AA2
:1004C00043F08073136000BF194B1B685B0E03F091
:1004D0000103002BF8D0164B5B68154A23F001038B
:1004E0005360134B5B68124A43F0020353601AE0F7
:1004F0000F4B1B680E4A43F00103136000BF0C4B07
:100500001B685B0803F00103002BF8D0084B5B6805
:10051000074A23F001035360054B5B68044A23F04C
:100520000203536000BF00BF0C37BD4680BC70475C
:100530000010024080B483B000AF0346FB71424B11
:100540005B68414A23F4003353603F4B5B683E4A8B
:1005500023F480335360FB79022B4CD0022B5FDCF9
:10056000002B02D0012B23D05AE0374B1B68364AB0
:1005700043F48033136000BF334B1B685B0C03F004
:100580000103002BF8D0304B5B682F4A23F4003373
:1005900053602D4B5B682C4A43F48033536000BF9B
:1005A000294B1B685B0C03F00103002BF8D046E0DD
:1005B000254B1B68244A43F48033136000BF224B51
:1005C0001B685B0C03F00103002BF8D01E4B5B682B
:1005D0001D4A43F4003353601B4B5B681A4A43F4D3
:1005E0008033536000BF184B1B685B0C03F00103A2
:1005F000002BF8D023E0144B1B68134A43F001038F
:10060000136000BF104B1B685B0803F00103002B55
:10061000F8D00D4B5B680C4A23F4803353600EE036
:10062000094B1B68084A43F00103136000BF064BE7
:100630001B685B0803F00103002BF8D000BF00BF6C
:100640000C37BD4680BC70470010024080B483B0B8
:1006500000AF0346FB71064B5B68FA7992041146C2
:10066000034A0B43536000BF0C37BD4680BC704744
:100670000010024080B483B000AF78607B68002B2C
:100680001BD0104B5B687A68D278120111460D4A74
:100690000B4353600B4B5B687A6812791202114668
:1006A000084A0B435360074B5B687A685279D20261
:1006B0001146044A0B43536000E000BF0C37BD46AF
:1006C00080BC70470010024080B584B000AF1F4866
:1006D000FFF73EFE02210220FFF75CFE1C48FFF7F9
:1006E00047FD1C48FFF744FD1948FFF762FD194814
:1006F000FFF75FFD0023FB6002E0FB680133FB6056
:10070000FB68154A9342F8D91148FFF769FD114873
:10071000FFF766FD0023BB6002E0BB680133BB60EE
:10072000BB680D4A9342F8D90948FFF770FD0948A4
:10073000FFF76DFD00237B6002E07B6801337B6087
:100740007B68054A9342F8D9CEE700BF000000203D
:1007500008000020180000209F8601000D488546F3
:10076000AFF300800C480D490D4A002302E0D45835
:10077000C4500433C4188C42F9D30A4A0A4C0023EB
:1007800001E013600432A242FBD300F011F8FFF73E
:100790009BFFFEE700500020000000202800002002
:1007A000180800082800002044000020FEE7000090
:1007B00070B500260C4D0D4C641BA410A64209D147
:1007C00000F01AF800260A4D0A4C641BA410A64239
:1007D00005D170BD55F8043B98470136EEE755F852
:1007E000043B98470136F2E710080008100800089B
:1007F0001008000814080008F8B500BFF8BC08BCD1
:100800009E467047F8B500BFF8BC08BC9E467047CE
:040810005501000886
:0408140031010008A6
:100818000100000000000000000801400A0000007C
:10082800000801400B000000000801400C00000017
:08083800000801400D00000062
:040000050800075D8B
:00000001FF
